{
  "contractName": "Votacion",
  "abi": [
    {
      "inputs": [],
      "stateMutability": "nonpayable",
      "type": "constructor"
    },
    {
      "inputs": [],
      "name": "admin",
      "outputs": [
        {
          "internalType": "address",
          "name": "",
          "type": "address"
        }
      ],
      "stateMutability": "view",
      "type": "function",
      "constant": true
    },
    {
      "inputs": [
        {
          "internalType": "string",
          "name": "",
          "type": "string"
        }
      ],
      "name": "conteoPostulantes",
      "outputs": [
        {
          "internalType": "uint256",
          "name": "",
          "type": "uint256"
        }
      ],
      "stateMutability": "view",
      "type": "function",
      "constant": true
    },
    {
      "inputs": [
        {
          "internalType": "string",
          "name": "",
          "type": "string"
        },
        {
          "internalType": "uint256",
          "name": "",
          "type": "uint256"
        }
      ],
      "name": "encuesta",
      "outputs": [
        {
          "internalType": "uint256",
          "name": "id",
          "type": "uint256"
        },
        {
          "internalType": "string",
          "name": "nombre",
          "type": "string"
        },
        {
          "internalType": "uint256",
          "name": "votos",
          "type": "uint256"
        }
      ],
      "stateMutability": "view",
      "type": "function",
      "constant": true
    },
    {
      "inputs": [
        {
          "internalType": "address",
          "name": "",
          "type": "address"
        }
      ],
      "name": "esVotanteAutorizado",
      "outputs": [
        {
          "internalType": "bool",
          "name": "",
          "type": "bool"
        }
      ],
      "stateMutability": "view",
      "type": "function",
      "constant": true
    },
    {
      "inputs": [
        {
          "internalType": "string",
          "name": "",
          "type": "string"
        },
        {
          "internalType": "string",
          "name": "",
          "type": "string"
        }
      ],
      "name": "nombreRegistrado",
      "outputs": [
        {
          "internalType": "bool",
          "name": "",
          "type": "bool"
        }
      ],
      "stateMutability": "view",
      "type": "function",
      "constant": true
    },
    {
      "inputs": [
        {
          "internalType": "address",
          "name": "",
          "type": "address"
        },
        {
          "internalType": "string",
          "name": "",
          "type": "string"
        }
      ],
      "name": "yaVoto",
      "outputs": [
        {
          "internalType": "bool",
          "name": "",
          "type": "bool"
        }
      ],
      "stateMutability": "view",
      "type": "function",
      "constant": true
    },
    {
      "inputs": [
        {
          "internalType": "string",
          "name": "categoria",
          "type": "string"
        },
        {
          "internalType": "string",
          "name": "nombre",
          "type": "string"
        }
      ],
      "name": "registrarPostulante",
      "outputs": [],
      "stateMutability": "nonpayable",
      "type": "function"
    },
    {
      "inputs": [
        {
          "internalType": "address",
          "name": "wallet",
          "type": "address"
        }
      ],
      "name": "autorizarVotante",
      "outputs": [],
      "stateMutability": "nonpayable",
      "type": "function"
    },
    {
      "inputs": [
        {
          "internalType": "address",
          "name": "votante",
          "type": "address"
        },
        {
          "internalType": "string",
          "name": "categoria",
          "type": "string"
        },
        {
          "internalType": "uint256",
          "name": "idPostulante",
          "type": "uint256"
        }
      ],
      "name": "votarComo",
      "outputs": [],
      "stateMutability": "nonpayable",
      "type": "function"
    },
    {
      "inputs": [
        {
          "internalType": "string",
          "name": "categoria",
          "type": "string"
        },
        {
          "internalType": "uint256",
          "name": "idPostulante",
          "type": "uint256"
        }
      ],
      "name": "obtenerVotos",
      "outputs": [
        {
          "internalType": "uint256",
          "name": "",
          "type": "uint256"
        }
      ],
      "stateMutability": "view",
      "type": "function",
      "constant": true
    },
    {
      "inputs": [
        {
          "internalType": "address",
          "name": "wallet",
          "type": "address"
        },
        {
          "internalType": "string",
          "name": "categoria",
          "type": "string"
        }
      ],
      "name": "puedeVotar",
      "outputs": [
        {
          "internalType": "bool",
          "name": "",
          "type": "bool"
        }
      ],
      "stateMutability": "view",
      "type": "function",
      "constant": true
    }
  ],
  "bytecode": "0x608060405234801561001057600080fd5b5033600560006101000a81548173ffffffffffffffffffffffffffffffffffffffff021916908373ffffffffffffffffffffffffffffffffffffffff1602179055506114c0806100616000396000f3fe608060405234801561001057600080fd5b50600436106100a95760003560e01c80634003b868116100715780634003b868146101625780635d89b5f914610192578063a368e935146101c2578063d7c00363146101f2578063f851a44014610222578063fd0757e914610240576100a9565b80630fa8f0cf146100ae57806320315963146100ca57806327a27ba8146100e65780632a7c005c146101025780632cfd4fcc14610132575b600080fd5b6100c860048036038101906100c39190610cb3565b610272565b005b6100e460048036038101906100df9190610dd8565b61035d565b005b61010060048036038101906100fb9190610d30565b61059d565b005b61011c60048036038101906101179190610d97565b610890565b6040516101299190611182565b60405180910390f35b61014c60048036038101906101479190610cb3565b6108be565b60405161015991906110c7565b60405180910390f35b61017c60048036038101906101779190610cdc565b6108de565b60405161018991906110c7565b60405180910390f35b6101ac60048036038101906101a79190610cdc565b6109a7565b6040516101b991906110c7565b60405180910390f35b6101dc60048036038101906101d79190610dd8565b6109ec565b6040516101e991906110c7565b60405180910390f35b61020c60048036038101906102079190610e44565b610a47565b6040516102199190611182565b60405180910390f35b61022a610a83565b60405161023791906110ac565b60405180910390f35b61025a60048036038101906102559190610e44565b610aa9565b6040516102699392919061119d565b60405180910390f35b600560009054906101000a900473ffffffffffffffffffffffffffffffffffffffff1673ffffffffffffffffffffffffffffffffffffffff163373ffffffffffffffffffffffffffffffffffffffff1614610302576040517f08c379a00000000000000000000000000000000000000000000000000000000081526004016102f990611102565b60405180910390fd5b6001600260008373ffffffffffffffffffffffffffffffffffffffff1673ffffffffffffffffffffffffffffffffffffffff16815260200190815260200160002060006101000a81548160ff02191690831515021790555050565b600560009054906101000a900473ffffffffffffffffffffffffffffffffffffffff1673ffffffffffffffffffffffffffffffffffffffff163373ffffffffffffffffffffffffffffffffffffffff16146103ed576040517f08c379a00000000000000000000000000000000000000000000000000000000081526004016103e490611102565b60405180910390fd5b6004826040516103fd9190611095565b9081526020016040518091039020816040516104199190611095565b908152602001604051809103902060009054906101000a900460ff1615610475576040517f08c379a000000000000000000000000000000000000000000000000000000000815260040161046c906110e2565b60405180910390fd5b6000600180846040516104889190611095565b9081526020016040518091039020546104a19190611263565b9050604051806060016040528082815260200183815260200160008152506000846040516104cf9190611095565b90815260200160405180910390206000838152602001908152602001600020600082015181600001556020820151816001019080519060200190610514929190610b7e565b5060408201518160020155905050806001846040516105339190611095565b90815260200160405180910390208190555060016004846040516105579190611095565b9081526020016040518091039020836040516105739190611095565b908152602001604051809103902060006101000a81548160ff021916908315150217905550505050565b600560009054906101000a900473ffffffffffffffffffffffffffffffffffffffff1673ffffffffffffffffffffffffffffffffffffffff163373ffffffffffffffffffffffffffffffffffffffff161461062d576040517f08c379a000000000000000000000000000000000000000000000000000000000815260040161062490611102565b60405180910390fd5b600260008473ffffffffffffffffffffffffffffffffffffffff1673ffffffffffffffffffffffffffffffffffffffff16815260200190815260200160002060009054906101000a900460ff166106b9576040517f08c379a00000000000000000000000000000000000000000000000000000000081526004016106b090611162565b60405180910390fd5b600360008473ffffffffffffffffffffffffffffffffffffffff1673ffffffffffffffffffffffffffffffffffffffff168152602001908152602001600020826040516107069190611095565b908152602001604051809103902060009054906101000a900460ff1615610762576040517f08c379a000000000000000000000000000000000000000000000000000000000815260040161075990611142565b60405180910390fd5b600081118015610790575060018260405161077d9190611095565b9081526020016040518091039020548111155b6107cf576040517f08c379a00000000000000000000000000000000000000000000000000000000081526004016107c690611122565b60405180910390fd5b6000826040516107df9190611095565b90815260200160405180910390206000828152602001908152602001600020600201600081548092919061081290611375565b91905055506001600360008573ffffffffffffffffffffffffffffffffffffffff1673ffffffffffffffffffffffffffffffffffffffff168152602001908152602001600020836040516108669190611095565b908152602001604051809103902060006101000a81548160ff021916908315150217905550505050565b6001818051602081018201805184825260208301602085012081835280955050505050506000915090505481565b60026020528060005260406000206000915054906101000a900460ff1681565b6000600260008473ffffffffffffffffffffffffffffffffffffffff1673ffffffffffffffffffffffffffffffffffffffff16815260200190815260200160002060009054906101000a900460ff16801561099f5750600360008473ffffffffffffffffffffffffffffffffffffffff1673ffffffffffffffffffffffffffffffffffffffff168152602001908152602001600020826040516109819190611095565b908152602001604051809103902060009054906101000a900460ff16155b905092915050565b6003602052816000526040600020818051602081018201805184825260208301602085012081835280955050505050506000915091509054906101000a900460ff1681565b600482805160208101820180518482526020830160208501208183528095505050505050818051602081018201805184825260208301602085012081835280955050505050506000915091509054906101000a900460ff1681565b60008083604051610a589190611095565b9081526020016040518091039020600083815260200190815260200160002060020154905092915050565b600560009054906101000a900473ffffffffffffffffffffffffffffffffffffffff1681565b60008280516020810182018051848252602083016020850120818352809550505050505060205280600052604060002060009150915050806000015490806001018054610af590611343565b80601f0160208091040260200160405190810160405280929190818152602001828054610b2190611343565b8015610b6e5780601f10610b4357610100808354040283529160200191610b6e565b820191906000526020600020905b815481529060010190602001808311610b5157829003601f168201915b5050505050908060020154905083565b828054610b8a90611343565b90600052602060002090601f016020900481019282610bac5760008555610bf3565b82601f10610bc557805160ff1916838001178555610bf3565b82800160010185558215610bf3579182015b82811115610bf2578251825591602001919060010190610bd7565b5b509050610c009190610c04565b5090565b5b80821115610c1d576000816000905550600101610c05565b5090565b6000610c34610c2f8461120c565b6111db565b905082815260208101848484011115610c4c57600080fd5b610c57848285611301565b509392505050565b600081359050610c6e8161145c565b92915050565b600082601f830112610c8557600080fd5b8135610c95848260208601610c21565b91505092915050565b600081359050610cad81611473565b92915050565b600060208284031215610cc557600080fd5b6000610cd384828501610c5f565b91505092915050565b60008060408385031215610cef57600080fd5b6000610cfd85828601610c5f565b925050602083013567ffffffffffffffff811115610d1a57600080fd5b610d2685828601610c74565b9150509250929050565b600080600060608486031215610d4557600080fd5b6000610d5386828701610c5f565b935050602084013567ffffffffffffffff811115610d7057600080fd5b610d7c86828701610c74565b9250506040610d8d86828701610c9e565b9150509250925092565b600060208284031215610da957600080fd5b600082013567ffffffffffffffff811115610dc357600080fd5b610dcf84828501610c74565b91505092915050565b60008060408385031215610deb57600080fd5b600083013567ffffffffffffffff811115610e0557600080fd5b610e1185828601610c74565b925050602083013567ffffffffffffffff811115610e2e57600080fd5b610e3a85828601610c74565b9150509250929050565b60008060408385031215610e5757600080fd5b600083013567ffffffffffffffff811115610e7157600080fd5b610e7d85828601610c74565b9250506020610e8e85828601610c9e565b9150509250929050565b610ea1816112b9565b82525050565b610eb0816112cb565b82525050565b6000610ec18261123c565b610ecb8185611247565b9350610edb818560208601611310565b610ee48161144b565b840191505092915050565b6000610efa8261123c565b610f048185611258565b9350610f14818560208601611310565b80840191505092915050565b6000610f2d602483611247565b91507f457365206e6f6d6272652079612065786973746520656e206c6120636174656760008301527f6f726961000000000000000000000000000000000000000000000000000000006020830152604082019050919050565b6000610f93601e83611247565b91507f536f6c6f20656c2061646d696e207075656465206861636572206573746f00006000830152602082019050919050565b6000610fd3600b83611247565b91507f494420696e76616c69646f0000000000000000000000000000000000000000006000830152602082019050919050565b6000611013601c83611247565b91507f596120766f746173746520656e20657374612063617465676f726961000000006000830152602082019050919050565b6000611053601e83611247565b91507f4e6f206573746173206175746f72697a61646f207061726120766f74617200006000830152602082019050919050565b61108f816112f7565b82525050565b60006110a18284610eef565b915081905092915050565b60006020820190506110c16000830184610e98565b92915050565b60006020820190506110dc6000830184610ea7565b92915050565b600060208201905081810360008301526110fb81610f20565b9050919050565b6000602082019050818103600083015261111b81610f86565b9050919050565b6000602082019050818103600083015261113b81610fc6565b9050919050565b6000602082019050818103600083015261115b81611006565b9050919050565b6000602082019050818103600083015261117b81611046565b9050919050565b60006020820190506111976000830184611086565b92915050565b60006060820190506111b26000830186611086565b81810360208301526111c48185610eb6565b90506111d36040830184611086565b949350505050565b6000604051905081810181811067ffffffffffffffff821117156112025761120161141c565b5b8060405250919050565b600067ffffffffffffffff8211156112275761122661141c565b5b601f19601f8301169050602081019050919050565b600081519050919050565b600082825260208201905092915050565b600081905092915050565b600061126e826112f7565b9150611279836112f7565b9250827fffffffffffffffffffffffffffffffffffffffffffffffffffffffffffffffff038211156112ae576112ad6113be565b5b828201905092915050565b60006112c4826112d7565b9050919050565b60008115159050919050565b600073ffffffffffffffffffffffffffffffffffffffff82169050919050565b6000819050919050565b82818337600083830152505050565b60005b8381101561132e578082015181840152602081019050611313565b8381111561133d576000848401525b50505050565b6000600282049050600182168061135b57607f821691505b6020821081141561136f5761136e6113ed565b5b50919050565b6000611380826112f7565b91507fffffffffffffffffffffffffffffffffffffffffffffffffffffffffffffffff8214156113b3576113b26113be565b5b600182019050919050565b7f4e487b7100000000000000000000000000000000000000000000000000000000600052601160045260246000fd5b7f4e487b7100000000000000000000000000000000000000000000000000000000600052602260045260246000fd5b7f4e487b7100000000000000000000000000000000000000000000000000000000600052604160045260246000fd5b6000601f19601f8301169050919050565b611465816112b9565b811461147057600080fd5b50565b61147c816112f7565b811461148757600080fd5b5056fea2646970667358221220ef3cf4c14afed95db14d6fdf62746f873aa89650b96f5172980068c4b5c45e1f64736f6c63430008000033",
  "immutableReferences": {},
  "source": "// SPDX-License-Identifier: MIT\r\npragma solidity ^0.8.0;\r\n\r\ncontract Votacion {\r\n    struct Postulante {\r\n        uint id;\r\n        string nombre;\r\n        uint votos;\r\n    }\r\n\r\n    // Guarda los postulantes por categora e ID\r\n    mapping(string => mapping(uint => Postulante)) public encuesta;\r\n    // Guarda cuntos postulantes hay por categora\r\n    mapping(string => uint) public conteoPostulantes;\r\n    // Guarda qu wallets estn autorizadas para votar\r\n    mapping(address => bool) public esVotanteAutorizado;\r\n    // Guarda si ya vot por categora\r\n    mapping(address => mapping(string => bool)) public yaVoto;\r\n\r\n    mapping(string => mapping(string => bool)) public nombreRegistrado;\r\n\r\n\r\n    address public admin;\r\n\r\n    constructor() {\r\n        admin = msg.sender;\r\n    }\r\n\r\n    modifier onlyAdmin() {\r\n        require(msg.sender == admin, \"Solo el admin puede hacer esto\");\r\n        _;\r\n    }\r\n\r\n    function registrarPostulante(string memory categoria, string memory nombre) public onlyAdmin {\r\n        require(!nombreRegistrado[categoria][nombre], \"Ese nombre ya existe en la categoria\");\r\n\r\n        uint nuevoId = conteoPostulantes[categoria] + 1;\r\n        encuesta[categoria][nuevoId] = Postulante(nuevoId, nombre, 0);\r\n        conteoPostulantes[categoria] = nuevoId;\r\n        nombreRegistrado[categoria][nombre] = true;\r\n    }\r\n\r\n\r\n    function autorizarVotante(address wallet) public onlyAdmin {\r\n        esVotanteAutorizado[wallet] = true;\r\n    }\r\n\r\n    function votarComo(address votante, string memory categoria, uint idPostulante) public onlyAdmin {\r\n        require(esVotanteAutorizado[votante], \"No estas autorizado para votar\");\r\n        require(!yaVoto[votante][categoria], \"Ya votaste en esta categoria\");\r\n        require(idPostulante > 0 && idPostulante <= conteoPostulantes[categoria], \"ID invalido\");\r\n\r\n        encuesta[categoria][idPostulante].votos++;\r\n        yaVoto[votante][categoria] = true;\r\n    }\r\n\r\n\r\n    function obtenerVotos(string memory categoria, uint idPostulante) public view returns (uint) {\r\n        return encuesta[categoria][idPostulante].votos;\r\n    }\r\n\r\n    // Opcional: ver si alguien est autorizado o si ya vot en una categora\r\n    function puedeVotar(address wallet, string memory categoria) public view returns (bool) {\r\n        return esVotanteAutorizado[wallet] && !yaVoto[wallet][categoria];\r\n    }\r\n}\r\n",
  "sourcePath": "C:\\Users\\daria\\source\\Contracts\\contracts\\Votacion.sol",
  "compiler": {
    "name": "solc",
    "version": "0.8.0+commit.c7dfd78e.Emscripten.clang"
  },
  "schemaVersion": "3.4.16",
  "updatedAt": "2025-06-24T21:36:51.051Z",
  "networkType": "ethereum",
  "devdoc": {
    "kind": "dev",
    "methods": {},
    "version": 1
  },
  "userdoc": {
    "kind": "user",
    "methods": {},
    "version": 1
  }
}